:10800000004000201DFC000053FC000055FC000057
:1080100057FC000059FC00005BFC000051FC000014
:1080200051FC000051FC000051FC00005DFC000010
:108030005FFC000051FC000061FC000063FC0000DC
:10804000598C0000F1D3000069FC0000B9EF00007A
:108050006DFC00006FFC000071FC000073FC000070
:1080600041C90000F5D3000079FC00007BFC000052
:10807000D5EF00007FFC000081FC000083FC0000C5
:1080800085FC000087FC000089FC00008BFC0000E0
:108090008DFC00008FFC000091FC000093FC0000B0
:1080A000D1C5000097FC000099FC00009BFC00007B
:1080B0009DFC00009FFC000000000000000000008C
:1080C00000000000000000000000000000000000B0
:1080D00000000000000000000000000000000000A0
:1080E0000000000000000000000000000000000090
:1080F0000000000000000000000000000000000080
:1081000010B5054C237833B9044B13B10448AFF3D1
:1081100000800123237010BDA80B00200000000088
:10812000DC7B010008B5064B1BB106480649AFF3DE
:1081300000800648036813B1054B03B1984708BD9A
:1081400000000000DC7B0100AC0B0020A40B002031
:1081500000000000154B002B08BF134B9D46A3F5F4
:10816000803A00218B460F461348144A121A08F031
:10817000FDF80F4B002B00D098470E4B002B00D082
:1081800098470020002104000D000D48002802D06F
:108190000C480AF099FB07F093FD2000290007F036
:1081A0007DFB07F07DFD00BF0000080000400020BF
:1081B0000000000000000000A80B0020E42A0020BE
:1081C000C928010081380100204AD36A03F47053A2
:1081D000B3F5805F35D0B3F5005F04D0B3F5006F21
:1081E00004D11B4B00E01B4B18687047D36803F4A5
:1081F000E063B3F5007F16D008D8B3B1B3F5807F44
:108200001DD1154B154AD86C154B12E0B3F5806F94
:108210001AD0B3F5A06F04D0B3F5407F0FD1114849
:10822000704711487047114870470B4B104AD86C83
:10823000104BB0F1985F34BF1046184670470020CD
:1082400070474FF4004070470B48704700800C4067
:108250000402002000020020B081E00FC0CF6A00BD
:1082600040B56400809FD500003FAB01C0D8A70097
:1082700040420F00804F1200406F400108B5FFF7E9
:10828000A3FF044B5B6803F00F03D840024B186058
:1082900008BD00BF00800C40542A0020014B186824
:1082A000704700BF04020020044B1860044BDB6AD7
:1082B0001B0501D5FFF7E2BF704700BF0402002095
:1082C00000800C4070474FF4004070474FF47A70C4
:1082D00070470000014B1868704700BF0002002083
:1082E000044B1860044BDB6A9B0401D5FFF7C6BF43
:1082F000704700BF0002002000800C40FEE7000035
:108300000A494B6803F00702032A0CD8DFE802F0A1
:108310000202070723F0070343F0010303E023F001
:10832000070343F003034B60704700BF00000C409D
:10833000104A10B5104C11490244A2424B680BD8A8
:1083400003F00702023A012A23F0070394BF43F027
:10835000030343F001030BE0094A904208D803F0FD
:108360000702023A012A23F0070398BF43F00203F1
:108370004B6010BDFFDB0BFFFF23F40000000C403F
:108380000024F400431EB3F5004F10B5044603D398
:1083900004488721FFF7B2FFB4FA84F4E0B2C0F1D9
:1083A0001F0010BDA0660100034B5A6DD20702D416
:1083B0001A6D1042FCD1704700800C40012810B5A6
:1083C000044604D90F4840F27711FFF797FF0E4B90
:1083D0006400986AE04000F00300022807D00328F8
:1083E00009D001280BD1BDE81040FFF76CBFBDE8F4
:1083F0001040FFF76FBFFFF741FF400810BD00209E
:1084000010BD00BFA066010000800C40B0F5801FC9
:1084100038B504460D4604D3144840F2E111FFF785
:108420006DFF042D14D8DFE805F0030507090B00E4
:10843000012206E0032204E0002202E0022200E022
:1084400004220B4B9A610A4B0822DC615A6206E057
:10845000064840F2FB11FFF751FF002038BDDA6AF1
:108460005204FCD4024BD86938BD00BFA06601009D
:1084700000800C40C0F30312013A08B50123032A1F
:1084800038D8DFE802F002050A1F1E4A906801E0B2
:108490001C4A506800F00F0025E01B4B984208D0A2
:1084A00003F50433984209D1164B986EC0F30310BC
:1084B00018E0144B986E00F00F0013E0134840F2E0
:1084C000BE211AE0124B984208D003F504339842BB
:1084D0000CD10C4B186FC0F3011003E0094B186F5F
:1084E00000F00300012303FA00F008BD07484FF431
:1084F000367102E0054840F2DF21FFF7FFFE012060
:1085000008BD00BF00800C4030040800A0660100D8
:1085100040051400C0F30313013B10B50C46032BB8
:1085200000F29A80DFE803F002152E644B1EB3F5CB
:10853000007F04D34C4840F21A31FFF7DFFE20469B
:10854000FFF720FF494B9A6822F00F021043986012
:1085500010BDB1F5007F04D9434840F22231FFF746
:10856000CDFEFFF7CDFE2046FFF70CFF3F4B5A68CC
:1085700022F00F0210435860FFF780FEBDE8104064
:10858000FFF7D6BE3A4B984204D003F50433984225
:1085900014D029E0B1F5004F04D9334840F25131ED
:1085A000FFF7ACFE0420FFF7FFFE2046FFF7EAFED0
:1085B0002E4B9A6E22F00F02104313E0B1F5004FDC
:1085C00004D9294840F25F31FFF798FE0420FFF7F5
:1085D000EBFE2046FFF7D6FE244B9A6E22F0F00207
:1085E00042EA0010986610BD1F4840F28B3136E019
:1085F000204B984204D003F50433984213D027E06F
:10860000082904D9184840F29531FFF777FE402039
:10861000FFF7CAFE2046FFF7B5FE144B1A6F22F093
:108620000302104312E0082904D90F484FF469717E
:10863000FFF764FE4020FFF7B7FE2046FFF7A2FEDB
:108640000A4B1A6F22F0300242EA0010186710BD80
:10865000054840F2B23102E003484FF46E71BDE8C4
:108660001040FFF74BBE00BFA066010000800C4029
:108670003004080040051400C0F30323013B70B52B
:108680000D46052B10D8DFE803F016190306090C78
:108690000023124C14E00123114C11E01023114C63
:1086A0000EE00023104C0BE0104840F20D41BDE8F5
:1086B0007040FFF723BE00230D4C01E00D4C00235A
:1086C000C0F3043613B11846FFF76EFE04F10474CC
:1086D00006EBC406B600356070BD00BF40800C409C
:1086E00058800C4060800C4078800C40A0660100EF
:1086F00008800C4044800C4000F00F00013808B5A1
:1087000003282ED8DFE800F002141E341A4BDB6A6F
:1087100003F47053B3F5805F08D0B3F5005F29D040
:10872000B3F5006F0CBF0420052008BD032008BD71
:10873000114B986A00F0030002281CD003280ED0C9
:10874000012808E00C4B9B6A03F00C03082B11D0A6
:108750000C2B04D0042B0CBF0320012008BD0620E5
:1087600008BD064840F25551FFF7C8FD002008BD7E
:10877000072008BD022008BD00800C40A066010053
:1087800000F47810B0F5202F08B53CD019D8B0F51A
:10879000802F2FD009D8002852D0B0F5003F57D1F4
:1087A000FFF712FD2F4B9B682AE0B0F5C02F25D0B4
:1087B000B0F5002F4CD10020FFF700FE294B9B6E37
:1087C0001EE0B0F5B01F2CD00DD8B0F5901F23D00F
:1087D000B0F5A01F3CD10120FFF7F0FD214B1B6F2E
:1087E00003F0030316E0B0F5C01F22D0B0F5D01F90
:1087F00035D02DE0BDE80840FFF740BD00200CE07B
:1088000003F00F0306E00020FFF7D8FD154B9B6E29
:10881000C3F30313D84008BD0120BDE80840FFF7AB
:10882000CDBD0120FFF7CAFD0E4B1B6FC3F3011333
:10883000F0E70D48FFF760FF072810D0082803D1A4
:10884000BDE80840FFF7C0BC08484FF4B07102E033
:10885000064840F2B741FFF751FD002008BD04482B
:1088600008BD00BF00800C4004001800A066010095
:10887000809FD500054B30B11A6D002AFCD1034B07
:1088800001225A6570475865704700BF00800C4050
:10889000024BD868C0F30220704700BF00800C4034
:1088A00070B5054605281CD8DFE800F00306090E60
:1088B00012161D4BDC6A0DE01B4BDC6A0EE01A4BF6
:1088C000DC6AC4F3074413E0174BDC6A240E0FE0A4
:1088D000154B1C6BE4B20BE0134B1C6BC4F3072469
:1088E00006E012484FF4E761BDE87040FFF706BDAF
:1088F0000120FFF701FF0528064601D1FFF700FD23
:108900000B4A052ED36823F4FF6323F0070343EAE1
:10891000052545EA0404D46005D1FFF7AFFCBDE8A6
:108920007040FFF705BD70BDB081E00FA06601008B
:1089300000800C40024BD868C0F30430704700BF81
:1089400000800C401F2810B5044604D9074840F2A7
:108950007671FFF7D3FC064B04F01F04DA6822F4AB
:10896000F83242EA0434DC6010BD00BFA0660100AA
:1089700000800C40002070477047000010B50428AC
:108980000FD8DFE800F00906181503001020202397
:1089900013E04020802310E04FF480704FF4007308
:1089A0000BE00C4840F2F671BDE81040FFF7A6BCA2
:1089B0000120022301E004200823074C29B1206292
:1089C00022B1E26A1342FCD000E02362BDE810400D
:1089D00000F090BCA066010000800C4010B500F0D3
:1089E0000F04012C03D055D3032C26D952E00239B1
:1089F000032909D8DFE801F00C0F02050220044624
:108A00000BE00320012408E0264840F2C65144E070
:108A10000020042401E00120032401210A46FFF77D
:108A2000ADFFFFF76DFC204B5C6200F063FCFFF7CD
:108A300025FCBDE81040FFF77BBC0139052917D89C
:108A4000DFE801F01A030A161611012100200A4678
:108A5000FFF794FF022310E0012001460246FFF7D2
:108A60008DFF012309E0114B01221A60032304E06A
:108A70000C484FF4C26110E000230B4A022C916AAB
:108A80000BBF21F0030121F00C010B4341EA8303EA
:108A9000936210BD034840F27261BDE81040FFF7D9
:108AA0002DBC00BFA066010000800C400808904368
:108AB000032808B508D0042809D001280BD1094B98
:108AC000186900F07F0008BD064BD86801E0054B2F
:108AD0005869C0B208BD044840F63201FFF70EFCE9
:108AE000002008BD00800C40A0660100032810B5DE
:108AF0000C4613D0042820D001282DD17F2904D979
:108B0000194840F65201FFF7F9FB184B04F07F04B7
:108B10001A6922F07F0214431C6110BDFF2904D999
:108B2000114840F65A01FFF7E9FB104BE4B2DA684E
:108B300022F0FF021443DC6010BDFF2904D90A486B
:108B400040F66201FFF7DAFB084BE4B25A6922F003
:108B5000FF0214435C6110BD034840F66A01BDE8A2
:108B60001040FFF7CBBB00BFA066010000800C40A7
:108B700001280CD006D3022811D10A4B986F00F0BF
:108B8000200008E0074B986F00F0020003E0054B5F
:108B9000986F00F00800003018BF012070470020D7
:108BA000704700BF00800C40022838B504460D46CF
:108BB00004D9044840F6B401FFF7A0FB024BE400DF
:108BC0001D5138BDA0660100040F90432DE9F0410E
:108BD000DFF880800401D8F808C0069D079F089E32
:108BE000A4441AB9D8F80C80444400E06446DCF888
:108BF0000CC0BCF1000F01D08CF8082057B1D4F89C
:108C000008C0CCF3816CBCF1030F1CBF06FA0CFC4E
:108C1000674427603DB1A768BF0F032F1CBF06FA4A
:108C200007F7ED196560012505FA00F0094D0BB154
:108C3000A86100E0E8610AB1686300E02863A36806
:108C400023F47F5323F037030B4343EA0616A66051
:108C5000BDE8F08100200C401A4B1B4A41F20C0188
:108C600012682DE9F0415F58174000D5FEE7D3F8B0
:108C70003880022607EA08050024EDB1EB0718D575
:108C80000121A1400F4B114A9B68116003EB0413B3
:108C9000DB6873B1197AD3F800C081F001021A724F
:108CA000BCF1000F05D00031204618BF01215A68E1
:108CB000E0476D080134E0E7013E27EA0805DBD113
:108CC000BDE8F08100200C4000300C4008300C4022
:108CD0002DE9FF41072804460E4690461F460A9D8F
:108CE00004D9104840F28F11FFF708FBB5F5806FEB
:108CF00004D30C484FF4C871FFF700FB2046CDF8B1
:108D0000008001970295022132460023FFF75EFFA3
:108D1000012303FA04F4044B9C625C6104B0BDE8D7
:108D2000F08100BFB666010000200C402DE9FF4134
:108D3000072804460F46164698460B9D04D910484E
:108D400040F2CD11FFF7DAFAB5F5806F04D30C4885
:108D50004FF4E771FFF7D2FA0A9B20460193CDF852
:108D600000803346029501213A46FFF72FFF012389
:108D700003FA04F4034B9C6204B0BDE8F08100BF29
:108D8000B666010000200C402DE9F043072885B0AD
:108D900004460D46914698460C9E0F9F04D91948EB
:108DA00040F21721FFF7AAFAB6F5806F04D31548F1
:108DB0004FF40671FFF7A2FAB7F5806F04D311489C
:108DC00040F21921FFF79AFA0D9B204600930E9B63
:108DD0000297019303212B460022FFF7F7FE20465E
:108DE0002B46CDF80090CDF8048002960321012295
:108DF000FFF7ECFE012303FA04F4034B9C6205B079
:108E0000BDE8F083B666010000200C4007282DE97C
:108E1000F04706468A4615461F4604D92D4840F2BB
:108E20005E21FFF76BFA25B92A4840F25F21FFF770
:108E300065FA7B1EFF2B04D926484FF41871FFF703
:108E40005DFA254A3C019168201F3301284458509F
:108E5000D26803EB01090C321344C9F80430AB6843
:108E600003F006085B0704D41A484FF41E71FFF79D
:108E700045FA103C2C44A368B8F1040F23F0070313
:108E8000A360A3680CBF43F0020343F00103A36097
:108E9000D9F80C300BB100221A72AB68BF0103F491
:108EA000E01348EA030343F02A4343F4004343EA50
:108EB000CA03103F3B43C9F80830012303FA06F602
:108EC000054BB8F1040F5E639E6208BF5E61BDE8AA
:108ED000F08700BFB666010000200C40072838B5B7
:108EE00004460D4604D9154840F2C521FFF706FA9D
:108EF00025B9124840F2C621FFF700FA104BAA68C4
:108F0000996801EB0411CA6029780122A24009B1D5
:108F10009A6300E0DA636A6804F5886143F8212007
:108F2000084B6A78234432B1012202FA04F404485F
:108F300041F2080144509B001A6038BDB66601003A
:108F400000200C406080E110072870B505460E46F1
:108F5000144604D9114840F21231FFF7CFF924B971
:108F60000E4840F21331FFF7C9F90D4B0EB19B6863
:108F700000E0DB682279E178920442EA81322178CC
:108F800003EB0515A3786078890741EA037141EA8C
:108F9000806141EA03631343AB6070BDB6660100B4
:108FA00000200C40F8B50E461446054620B91E4870
:108FB00040F28D31FFF7A2F924B91B4840F28E31FF
:108FC000FFF79CF9627AA089032A18BF00FA02F71A
:108FD0004FEA0611266805EB010318BFF6196E501B
:108FE000217A656803291CBF00FA01F6AD195D609E
:108FF0000025DD60E57BA77B002DA57A4FEA817116
:10900000E47A41EA05714FEA874747EA001041EAEE
:10901000826240EA843042EA05650CBF05260726D5
:10902000054335439D60F8BDB6660100072810B5BD
:10903000044604D9054840F2D231FFF75FF9044BEA
:109040009B6A23FA04F000F0010010BDB66601002F
:1090500000200C402DE9F843072806468946904633
:109060001F46089D099C04D9234840F23E41FFF762
:1090700045F9B4F5806F04D31F4840F23F41FFF734
:109080003DF99DF828303201002B0CBF4FF0030C46
:109090004FF0010C194BB9F1000F01D0996800E0B5
:1090A000D968114445B18A68C2F38162032A1CBFA2
:1090B00004FA02F2AD180D603FB18A68920F032ADC
:1090C0001CBF04FA02F2BF184F60012303FA06F630
:1090D0000A48B8F1000F01D0866100E0C6618B68D4
:1090E00023F47F5323F0370343EA041343EA0C03CA
:1090F0008B60BDE8F88300BFB666010000200C401D
:109100000F4B0120C3F880000E4BFF220021596055
:10911000DA615A62DA625A63DA63D86441F20C02A5
:109120000948995041F2080298500A4602F58861B0
:1091300001320020082A43F82100F7D1704700BF10
:1091400000E100E000200C40FF00008010B5044664
:1091500020B9124840F2EB31FFF7D0F8237923B160
:109160000E4840F2EE31FFF7C9F801210C48FFF735
:1091700083FAFFF7C5FF0B4B0122C3F880211A6069
:10918000094B41F20C024FF00041995062689A601D
:109190002278520142F001025A6010BDB666010009
:1091A0000013040000E100E000200C401A4B45F6DB
:1091B0000E02D3F88400C3F88420184A00F001009E
:1091C000128802F4AA71196202F47051B1F5805F3D
:1091D00006D0B1F5005F08D0B1F5006F10D109E0FD
:1091E000D96A0906FCD5032108E0D96A8905FCD5AE
:1091F000042103E0D96A0907FCD50221064B596214
:10920000D30702D4044B02221A6218B1024B002287
:10921000C3F88420704700BF00800C40C40B0020BE
:10922000094B0A4ADB6A9BB21380094A116941F073
:109230000401116130BF08B1FFF7B8BF5B0501D46D
:10924000FFF71CB8704700BF00800C40C40B002023
:1092500000ED00E0134B1449DA6A10B592B20A80AF
:10926000D3F8841045F60E04C907C3F8844048BFFC
:1092700000214FF420741C6248BFC3F884100B4BCC
:10928000196941F00401196130BF18B1BDE81040FF
:10929000FFF78CBF530503D4BDE81040FEF7EEBFC7
:1092A00010BD00BF00800C40C40B002000ED00E0AA
:1092B000074B4AF6E8529A600C2108221A6019609E
:1092C0001A6019601A6019601A6019601A60704794
:1092D00000600C40072810B5044604D903484FF439
:1092E000B171FFF70BF8024B5C6010BDCC6601005A
:1092F00000600C40024BDA6A024B1A80704700BFD4
:1093000000800C40C40B0020032810B5044603D98C
:1093100006484D21FEF7F2FF054BD3F8202122F439
:10932000407242EA0424C3F8204110BDE266010005
:1093300000600040052838B505460C4601D80329D1
:1093400003D908486321FEF7D9FF2420684300F1C0
:10935000804000F5C040036823F003031C43046011
:1093600038BD00BFE26601000528F8B505460C4689
:1093700016461F4601D80F2903D919489621FEF732
:10938000BDFF072C17490CD8A0000F238340854050
:10939000D1F8002122EA030343EA0500C1F80001E5
:1093A0000DE0A4F1080080000F2383408540D1F830
:1093B000042122EA030343EA0500C1F804010A4933
:1093C0000123214403FA04F4064B89000E60C1F81E
:1093D0008070C3F81C419DF81830C1F80031F8BD09
:1093E000E266010000600040400883100528F8B5DF
:1093F00005460C4616461F4601D80F2903D92248B8
:10940000CB21FEF77BFF76B101232422A34037B1A5
:109410006A4302F1804202F5C042136103E002FB9D
:1094200005F11A4A535024226A43072C02F1804264
:1094300002F5C0420AD8A3000F21994006FA03F3AF
:10944000506820EA01010B4353600CE004F18041B5
:10945000083989000F238B4006FA01F1906820EA51
:109460000303194391606EB90122242302FA04F424
:109470005D432FB105F1804505F5C0452C61F8BD70
:10948000024B5C51F8BD00BFE26601001460004071
:10949000036CDB0702D4436C1942FCD1704721F006
:1094A00007014904490C01F58071B0FBF1F301FBA0
:1094B00013000002B0FBF1F000EB03207047000046
:1094C0000C4B10B59842044605D003F580639842D2
:1094D00009D1094800E00948FFF752F9E168BDE801
:1094E0001040FFF7DCBF0648E221FEF707FF00202F
:1094F00010BD00BF00400840401516004005140094
:10950000F966010070B504460D46164622B91848A2
:109510004FF48471FEF7F2FE9DB9164B9C420AD0BF
:1095200003F580639C4208D0BDE8704010484FF4BA
:109530009A71FEF7E3BE104800E01048FFF720F9EB
:1095400005466D01B5FBF6F5203DED0047F6F873D5
:109550009D4204D9064840F24111FEF7CFFE47F67E
:10956000F8762E4020460421FFF792FFE66070BD9A
:10957000F96601000040084040051400401516003F
:1095800038B50C4B044698420D4608D003F580636D
:10959000984204D008484FF4B371FEF7AFFEEB4396
:1095A00003F0050345EA430520460221FFF770FF5B
:1095B000656038BD00400840F966010029B1436C80
:1095C000002BFCD101230364704701647047000045
:1095D000164B70B5984204460D4608D003F58063DB
:1095E000984204D012484FF4E671FEF787FE2046F9
:1095F0000221FFF74DFF0A236360666C002EFCD149
:109600000123236423682A7B23F01C0313436A7B12
:1096100020461343AA7B696813432360AA68FFF7B7
:1096200071FF2B786360266470BD00BF0040084066
:10963000F9660100104B10B59842044608D003F5B6
:109640008063984204D00D4840F2F311FEF756FEB5
:10965000636C002BFCD101222264EA22626040F29A
:10966000F9722360E36023616361A3636263E36370
:109670006365236410BD00BF00400840F966010027
:1096800083689B06FCD5C069C0B2704783689B069F
:10969000FCD5806980B2704738B504460D46A36892
:1096A000DB06FCD520464021FFF7F2FEA56238BD5F
:1096B00038B504460D46A368DB06FCD520462021BC
:1096C000FFF7E6FE656238BD38B504460D46012158
:1096D000FFF7DEFE236815B143F4005301E023F4E5
:1096E0000053236038BD38B504460D460121FFF70D
:1096F000CFFE236815B143F4805301E023F4805377
:10970000236038BD2DE9F04107460D4698461646C0
:109710001AB930488C21FEF7F1FD1DB92E48FFF72C
:109720002FF80546B8F1200F13D003D8B8F1000F79
:1097300007D028E0B8F1400F13D0B8F1600F1AD06D
:1097400021E0B6EB151F24D92248B221FEF7D6FD41
:109750001FE0B6EBD50F1ED91E48B721FEF7CEFD90
:1097600019E00624B5FBF4F39E4217D91948BC2131
:10977000FEF7C4FD12E0B6EB950F0ED91548C121D6
:10978000FEF7BCFD09E01348C721BDE8F041FEF734
:10979000B5BD102402E0082400E004247443AD00A9
:1097A00005EB5405B5FBF4F4043C0C4BA4019C42BE
:1097B00003D90848D621FEF7A1FD3A68074B22F0ED
:1097C00060023A603A68234048EA02023A607B61EC
:1097D000BDE8F0811267010010810200C0FF1F0088
:1097E00010B50F4C0C405AB9202B0AD0402B04D096
:1097F000002B0CBF1023402303E08023032201E051
:109800008023012204F580746243B0FBF2F102FB75
:1098100011005843B0FBF2F003FB010010BD00BF84
:10982000C0FF1F0070B5044605680648FEF7A8FF94
:10983000236805F00102616903F06003BDE8704030
:10984000FFF7CEBF1081020070B506460D461446E4
:1098500022B90F484FF4DA71FEF750FD1DB90D48DB
:10986000FEF78EFF0546631E03EB4505B5FBF4F4DA
:10987000A401403C084B24F0FF029A4204D904485A
:1098800040F2E311FEF73AFD044B2340736170BDD3
:109890001267010010810200C0FF1F0000FF1F00BF
:1098A00038B50C4B044698420D460CD003F5806346
:1098B000984208D003F58063984204D006484FF4DC
:1098C0000071FEF71BFDEB4303F005035B00E36053
:1098D000E56038BD00C000401267010083684A7827
:1098E00023F037030AB143F020030A780AB143F0AA
:1098F00010038A781343836070470000124B10B541
:10990000984204460CD003F58063984208D003F5D2
:109910008063984204D00D4840F22D31FEF7EEFCF2
:1099200040F6AA63E36041F205020023236062600F
:1099300041F6F972A3606361E364A264024A63655D
:10994000944208BF236510BD00C0004012670100AB
:1099500038B5124B044698420D460CD003F580638F
:10996000984208D003F58063984204D00C4840F236
:109970002621FEF7C3FC2046FFF7C0FF2A8A6B7B37
:1099800020461343EA89696813436360AA682B7B06
:10999000FFF7B8FE2B78E36038BD00BF00C0004081
:1099A0001267010038B5114D044621462846FFF7DD
:1099B000CFFF2B68284643F480432B60237D1BB1E7
:1099C0002B6843F400532B60217EA37D026D0B4373
:1099D000617D43EAC1031343E27D43EAC213036599
:1099E000036D43F00103036538BD00BF00C00040B4
:1099F00038B5194B044698420D460CD003F58063E8
:109A0000984208D003F58063984204D0134840F28E
:109A10006121FEF773FC2046FFF770FF2B8AAA7BBB
:109A2000216843F00103002A9BB20CBF00224FF4CF
:109A300080620B43134323602B7B204643F4805307
:109A400063606968AA68FFF7FFFE6B7B0BB11023A8
:109A5000E3602B78E36038BD00C00040126701006E
:109A600003691B06FCD5C069C0B270470369DB05FA
:109A7000FCD5406A80B270470369DB05FCD5006AFB
:109A8000704703691B06FCD5806980B27047036983
:109A90005A06FCD5416303699B06FCD5C069C0B278
:109AA000704703695B06FCD54163704703695B0639
:109AB000FCD5C163704703695B06FCD581637047C1
:109AC00003695B06FCD501637047000010B50446CE
:109AD0000748FEF755FE23680649C3F301232269B0
:109AE000CB5C02FB03330433B0FBF3F010BD00BFCB
:109AF000108102002A670100F8B504461F46164689
:109B00002AB91448DB21BDE8F840FEF7F7BB03682B
:109B100023F440730360036843EA0723036019B921
:109B20000D48FEF72DFE01460C4BA1EB8601DD5DD5
:109B300023686E439B07B1FBF6F500D53DB1B5F543
:109B4000007F05D30348F721FEF7D8FB00E001258D
:109B50002561F8BD2E670100108102002A6701000F
:109B600038B5074B044698420D4604D0054840F2EC
:109B70000B11FEF7C3FB04F104746401256038BDCA
:109B800000A000402E6701000F4B70B598420546BB
:109B90000C4604D00D4840F21D11FEF7AFFB002328
:109BA0006B6362780A4B05F104762B6382F0010245
:109BB00073015A602846237B6168A268FFF79CFF07
:109BC00023787601336070BD00A000402E6701004D
:109BD000CFFF01000023036003614361836143639E
:109BE000014B0363704700BFCFFF0100F8B5A04BE6
:109BF000984226D09F484FF4B871FEF77FFBFC20B7
:109C00001DE0598041881A710288C8064AD5120A97
:109C100002F0060242F0F0029549012018704A62F3
:109C200048601978944A092940F01F819048002122
:109C3000416392F90100012808BF5170587840B281
:109C4000F8BD8D4B98681E7859881A79884FBC6A80
:109C50003D4614F4C06F0CD0A505874859801A7191
:109C600001D5FD2203E0640540F1FC80FE22427034
:109C7000F8E0082E00F2F2800FF2040C5CF826F0F7
:109C8000039C0000B39C0000FB9C0000199D000099
:109C90004B9D00006F9D0000BD9D0000E79D0000F2
:109CA0003F9E000002F0FE028F0748BF42F0010213
:109CB000B2E7260600F18480640601D4012049E061
:109CC00040253D6345886A4CEE0606D51A7102228E
:109CD0001A70027859806262A3E7AF0740F1818071
:109CE0001A7100EBC20212895980012A4FF0070154
:109CF000197096D10822626093E7260660D4640644
:109D000001D4022026E040243C63448814F0020F72
:109D100014BF0326052699E7598041881A710288E5
:109D2000C80643BF120A02F0060242F0F00202F037
:109D3000FE024F074FF0040119704D4948BF42F031
:109D40000102012048604A626BE7260638D46406A7
:109D500004D40420187059801A7162E740243C63CF
:109D6000448867073DD51A71598007227BE000EBD4
:109D7000C20425898D4218D84188013201F00404BB
:109D8000A4B2D2B214B1002103265FE711F00101A1
:109D900006D05C801A7108221A700221344A41E010
:109DA000012A7FF653AF5980F4E71A716268481CA4
:109DB000515C2F4A58805162062254E026060AD58B
:109DC0001A71802259802A63FF225A7008221A7061
:109DD00002226A6025E7640601D40620BAE740241F
:109DE0003C63052632E707265980A106224D1E70E6
:109DF0001A717FF516AF00EBC20211896C881C48FE
:109E00008C42C06903D25268661C6E801055588817
:109E1000174A884208D3012904BF0821516008214C
:109E2000197002215160FCE60424012954603FF4BA
:109E3000F8AE013988427FF4F4AE0821F2E7082039
:109E40001A71E205187059807FF5EBAE084A4FF49D
:109E500080711163084A09211170E2E61A71FB2230
:109E600059805A7009221A70DBE60120E7E600BF2C
:109E700000A000402E670100CC0B00201E4B70B5E7
:109E8000984205460C461E4604D01C4840F2E92183
:109E9000FEF734FA24B9194840F2EA21FEF72EFA07
:109EA000B54226D1AB68DE0744BF20236B606388D0
:109EB000980701D52289E2B1590701D5238AC3B198
:109EC0000F4B002201211A711A705A809C60597040
:109ED000094BC0225A609A6A0748920648BFDA695D
:109EE000084ABDE870401A634FF4FC625A63FFF7FA
:109EF0007DBE6FF0030070BD00A000402E67010022
:109F0000CC0B0020CFFF0100034B1A6AD20702D40A
:109F10005A6A1042FCD1704700000840012810B571
:109F2000044603D907487621FEF7E8F924B1012C4D
:109F300005D1054BD86810BD034B986810BD0020B3
:109F400010BD00BF4467010000000840012838B57B
:109F500004460D4602D811F07F4F03D00848A621D1
:109F6000FEF7CCF914B1012C03D038BD0220054C0A
:109F700001E0054C0420FFF7C7FF256038BD00BF96
:109F800044670100080008400C00084010B5044672
:109F90000120FFF7B9FF4FF086431C6010BD0000A1
:109FA000054B30B15A6A002AFCD1034B01221A62D8
:109FB00070471862704700BF00000840437810B532
:109FC00004780BB144F0020483780BB144F004042C
:109FD0000120FFF799FF014B1C6010BD00000840F5
:109FE000044B00221A621A609A60DA60DA619A61A0
:109FF000704700BF0000084008B50020FFF7C6FF0B
:10A00000BDE808400120FFF7C1BF000010B50446BD
:10A0100018B909483E21FEF771F9084B1A6902F098
:10A020003F0222709A69DB6902F0F002C3F3031366
:10A030001343637010BD00BF5A670100D0FF0FE0EB
:10A0400008B50A4B5A68013205D109485E21FEF76E
:10A0500055F9002008BD1A68904201D1586808BD22
:10A06000044A08339342EDD1EFE700BF0080E00FD0
:10A070005A6701009081E00F38B50B4B04469842B7
:10A080000D460BD003F58063984207D003F580633B
:10A09000984203D005486521FEF730F90DB1012340
:10A0A00000E00223636038BD0000014073670100D7
:10A0B00038B5234B054698420C460BD003F5806318
:10A0C000984207D003F58063984203D01D4885214C
:10A0D000FEF714F923780BB902226A6000226A6243
:10A0E000E278A178120442EA0162A1790A43217957
:10A0F00042EA8122617942EA0122617800290CBF9B
:10A10000002140210A43E17900290CBF0021802170
:10A110000A43217A00290CBF002120210A43617AD9
:10A1200000290CBF002110210A43A17A00290CBF8D
:10A13000002108210A432A600BB101236B6038BD5E
:10A140000000014073670100244B70B5984205463A
:10A150000E4614460BD003F58063984207D003F5F2
:10A160008063984203D01E48BE21FEF7C7F8022E36
:10A1700003D91B48BF21FEF7C1F8637822781B067C
:10A1800043EA8263A27903361343A278360143EA95
:10A190000243E27843EA0233227943EA8223627976
:10A1A00043EA0223E279002A0CBF00224FF4001296
:10A1B0001343227A002A0CBF00224FF4801213436B
:10A1C000627A002A0CBF002210221343A27A002ACE
:10A1D0000CBF002204221343AB5170BD00000140AC
:10A1E000736701000A4B10B5984204460BD003F583
:10A1F0008063984207D003F58063984203D00548F6
:10A20000E421FEF77BF80023C4F8883010BD00BFBE
:10A210000000014073670100194B10B598420446D5
:10A220000BD003F58063984207D003F58063984212
:10A2300003D01448F921FEF761F80223636040F26D
:10A24000737200232360E360A2614FF6FF72E26144
:10A250004CF680622362636223636363E363236477
:10A260006364E36423656365E365C4F8882023675A
:10A270006367A367E3670F23C4F8843010BD00BF92
:10A2800000000140736701000B4B10B59842044673
:10A290000CD003F58063984208D003F580639842A0
:10A2A00004D0064840F22711FEF728F84CF68063E8
:10A2B000C4F8883010BD00BF000001407367010082
:10A2C000F7B5002840F08F80484E3078830700F1C2
:10A2D0008B8005F09FF805F06BFA0A25FF20013D01
:10A2E00005F062F815F0FF05F8D12846294605F07B
:10A2F00021FA0128044601D0002460E04FF47A706E
:10A3000005F078FA08204FF4D57105F013FA01280A
:10A3100035D1FF2005F048F801AF78550135042DFF
:10A32000F7D19DF80630012BE6D19DF80730AA2B16
:10A33000E2D105F069FA28B105F066FA0146002875
:10A34000DAD107E0A9204FF0804105F0F3F90028A9
:10A35000EFD1F1E73A2005F0EDF90028CCD1044621
:10A36000FF2005F021F838550134042CF8D19DF870
:10A37000043013F0400F0CBF04240C241FE02946C6
:10A38000A92005F0D7F901289ABF0224A92525465E
:10A3900005F03AFA014660B105F036FA0028ABD173
:10A3A00010204FF4007105F0C5F9002818BF0024F3
:10A3B00005E0284605F0BEF90028E9D1ECE70C4B92
:10A3C0001C8005F00FF834B1337823F001033370AB
:10A3D00005F0FEF905E005F043F8337843F001039A
:10A3E0003370307800E0012003B0F0BD0802002097
:10A3F000D80B002010B9024B187870470120704725
:10A400000802002038B50D461C461146002833D1FD
:10A4100093B31B4B1B78DA0730D41A4B1B881B07EE
:10A4200058BF4902012C0DD1112005F083F9E8B97C
:10A4300028464FF4007105F0D3F8D0F1010438BF7D
:10A44000002413E0122005F075F978B928464FF47E
:10A45000007105F0C5F828B1013C14F0FF0405F5C2
:10A460000075F3D10C20002105F064F904F0BAFF67
:10A47000201C18BF012038BD042038BD032038BD82
:10A4800008020020D80B002070B50D4616461C4669
:10A49000002840D1002B3ED0224B1B78D8073CD45B
:10A4A00059073CD4204B1B881A0758BF7602012C51
:10A4B0000DD11820314605F03DF930BB2846FE216C
:10A4C00005F0E0F8D0F1010438BF00241DE013F0DE
:10A4D000060F03D09720214605F02CF919203146AC
:10A4E00005F028F988B92846FC2105F0CBF828B1F9
:10A4F000013C14F0FF0405F50075F4D10020FD21A6
:10A5000005F0C0F8002808BF012404F06BFF201CF0
:10A5100018BF012070BD042070BD032070BD022053
:10A5200070BD00BF08020020D80B0020F0B5154612
:10A5300085B0002840F0E380734B1A78D20700F111
:10A54000E0800E2900F2D480DFE801F008134B4FC1
:10A55000D2D2D2D210D29DA1A3AFBF0004F04AFF45
:10A5600008B90124C7E004F03DFFC3E001221A70DE
:10A57000C0E00920002105F0DDF804460028F0D1F4
:10A580006846102105F02CF80028EAD09DF800302C
:10A590009DF808209B09012B9DF8093004D103EB9D
:10A5A000022301339B021AE09DF807109DF80A0070
:10A5B000890001EB92129DF8061003F0030301F0ED
:10A5C000030102EB81229DF80510013201F00F0119
:10A5D00001EBD01101EB4303073B02FA03F32B60BD
:10A5E00089E04FF400732B8084E0484E318801F0FD
:10A5F000040189B2D9B18D20002105F09BF8002813
:10A60000AFD1FF2004F0D0FE6846102104F0E8FF2F
:10A610000028A6D03024FF20013C04F0C5FE14F031
:10A62000FF04F8D19DF80A3010221B09D5E7092054
:10A6300005F080F8002894D16846102104F0D0FF7E
:10A6400000288ED034889DF80A2004F00204A4B2B9
:10A650009DF80B3064B19DF80D1002F03F02DB094C
:10A6600003EB42038909013301398B402B6041E040
:10A6700003F003015B0903EBC103C2F3840201335E
:10A6800002FB0333ABE7214B1B882B7032E0092020
:10A6900000E00A20002105F04DF800287FF461AFAA
:10A6A0002846102104F09CFF1DE03A20002105F00F
:10A6B00041F800287FF455AF0446FF2004F074FEF3
:10A6C00028550134042CF8D114E08D20002105F028
:10A6D00031F800287FF445AFFF2004F065FE2846DE
:10A6E000402104F0CFFFD0F1010438BF002402E084
:10A6F000042400E0002404F075FE204602E004205B
:10A7000000E0032005B0F0BD08020020D80B0020B7
:10A7100010B500239CB2A24203D0CC5CC4540133D8
:10A72000F8E710BD036930B501F10902002B35D0FF
:10A7300043690024185D202808D0052804F101048D
:10A7400008BFE520082C02F8010BF3D1187A202865
:10A750000DD010462E2400F8044BDD1D013215F8F3
:10A76000014F202C03D002F8014B8242F7D1D87A56
:10A770000872987FDC7F000440EA04601C7F20435D
:10A780005C7F40EA042008605C7E187E40EA04207A
:10A790008880D87D9B7D43EA0023CB800023137003
:10A7A00030BD2DE9F041056B04468D420E4602D1C5
:10A7B0000020BDE8F081037913B9002EF8D01FE026
:10A7C00000F13408414640782A460123FFF75CFE39
:10A7D00010B10120BDE8F081226A636A2071134440
:10A7E0009D42EAD2E778012FE7D9236A60781D44B9
:10A7F00041462A460123013FFFF746FEFFB2F2E73A
:10A80000607804F1340132460123FFF7FBFD002894
:10A81000DFD12663BDE8F08110B504460A464078D2
:10A8200004F134010123FFF7EDFD80BB94F83232CF
:10A8300094F8332243EA0222174B12B29A4228D1EB
:10A8400094F86C2094F86D30120442EA036294F894
:10A850006A301A4394F86B3042EA03220F4B22F01D
:10A860007F429A4216D094F8880094F88920000418
:10A8700040EA026094F88620104394F8872040EA6A
:10A88000022020F07F40C01A18BF012010BD032015
:10A8900010BD022010BD00BF55AAFFFF4641540065
:10A8A0002DE9F041154602681378303B9BB2092B25
:10A8B00005D854783A2C02D10232026001E0B64B3E
:10A8C0001B78002B40F05681B44B1C680C60002CA8
:10A8D00000F05381237873B16078FFF78BFDC607D2
:10A8E00009D4002D00F04C8110F0040F0CBF0020A3
:10A8F0000A20BDE8F081002020706070FFF7E0FCC6
:10A90000C10700F1408115B1420700F13F812046A7
:10A910000021FFF781FF012818D194F8F63113B90F
:10A920000D20BDE8F08194F8FC6194F8FD31360407
:10A9300046EA036694F8FA3120461E4394F8FB3148
:10A9400046EA03263146FFF767FF00E000260328AA
:10A9500000F01F810028E3D194F8402094F83F30A4
:10A9600043EA0223B3F5007FDAD194F84B0094F860
:10A970004A3053EA00200DD194F85A0094F85B3025
:10A98000000440EA036094F85830184394F85930B2
:10A9900040EA032094F8445020626B1E012BE570BE
:10A9A000BED894F84110A1700029B9D04B1E0B42BB
:10A9B000B6D194F8453094F8462043EA02221307B2
:10A9C0002281ADD194F8487094F8473053EA0723B8
:10A9D0000DD194F8563094F857701B0443EA07637E
:10A9E00094F854703B4394F8557043EA072394F865
:10A9F000438094F8427057EA082891D005FB00FC88
:10AA000008EB12176744BB428AD3DB1BB3FBF1F39D
:10AA1000002B85D040F6F5718B4206D94FF6F575BF
:10AA2000AB428CBF0325022500E0012502333744E9
:10AA300006EB0801032DE361E762616213D1002A8E
:10AA40007FF46EAF94F8622094F86310120442EA27
:10AA5000016294F860109B000A4394F8611042EA86
:10AA60000122A26210E0002A3FF45AAF022D4FEA01
:10AA7000430218BFD218614418BF03F00103A1625A
:10AA80000CBF134603EB520303F2FF13B0EB532F3B
:10AA9000FFF446AF4FF0FF332361032D4FF0000367
:10AAA000E3605AD1637194F8652094F8643060785B
:10AAB00043EA02223244626104F134010123FFF7C8
:10AAC000A1FC002849D194F8323294F8332243EAA9
:10AAD0000222334B12B29A423FD194F8362094F8B6
:10AAE0003730120442EA036294F834301A4394F87F
:10AAF000353042EA03222B4B9A422ED194F81A2287
:10AB000094F81B32120442EA036294F818321A4392
:10AB100094F8193242EA0322234B9A421DD194F849
:10AB2000223294F823221B0443EA026394F8202281
:10AB3000134394F8212243EA0223E36094F81E327F
:10AB400094F81F221B0443EA026394F81C22134367
:10AB500094F81D2243EA02232361144A002013883B
:10AB6000257001339BB220711380E3802063A061C4
:10AB7000BDE8F0810B20BDE8F0810C20BDE8F0813C
:10AB80002846BDE8F0810320BDE8F0810A20BDE839
:10AB9000F0810120BDE8F081DA0B0020E00B0020FD
:10ABA00055AAFFFF5252614172724161DC0B0020D5
:10ABB00008B568B103785BB1C3888B4208D140788F
:10ABC000FFF718FC10F0010F0CBF0020032008BD98
:10ABD000092008BD38B500210446FFF7E2FD034611
:10ABE000002B50D12278032A45D16279002A42D025
:10ABF000236304F134010025CD540133B3F5007F04
:10AC0000F9D1552384F83232AA2384F833325223FF
:10AC100084F8343084F83530612384F8363084F891
:10AC20001B322369412284F8372084F81A22C3F3A7
:10AC3000072284F81C3284F81D221A0C1B0E84F89B
:10AC40001F32E36884F81E22C3F30722722084F8BF
:10AC5000203284F821221A0C1B0E84F8180284F882
:10AC6000190284F8222284F8233260786269012371
:10AC7000FFF70AFC6571002160780A46FFF756FC71
:10AC8000003018BF012038BDC3690239023B994228
:10AC90003DBF8278C36A02FB013000207047012962
:10ACA000F8B504460D4661D9C36999425ED203786E
:10ACB000022B2AD0032B3AD0012B54D18EB206EBB3
:10ACC0005606416AB6B201EB5621FFF76AFD00282D
:10ACD00049D1C6F30803616A0136B6B2234420465F
:10ACE00001EB562193F83470FFF75BFD00283AD151
:10ACF000C6F30806344494F83400EB0747EA002012
:10AD00004CBF0009C0F30B00F8BD416A01EB1521EF
:10AD1000FFF747FD38BB6D0005F4FF7563192C4440
:10AD200093F8343094F8350043EA0020F8BD416AC6
:10AD300001EBD511FFF735FDA8B9AD0005F4FE759F
:10AD4000631993F8370093F8362034335B780006A4
:10AD500040EA02402C4440EA032094F8343018437F
:10AD600020F07040F8BD4FF0FF30F8BD0120F8BD75
:10AD700070B504460D46E1808168012901D10220A9
:10AD800070BD0368DA699142F9D271B91A78032A61
:10AD900001D1996A49B90022E2601A89AA42EED922
:10ADA0009B6A03EB1513236119E09E783601B542C7
:10ADB0000ED32068FFF773FF431C014618D001280B
:10ADC000DDD92368DB699842D9D2AD1BADB2EEE77D
:10ADD000E1602068FFF758FF00EB15102061236841
:10ADE00005F00F0503EB451334336361002070BD9C
:10ADF000012070BD10B5C1880446FFF7B9FF50B9F6
:10AE000020682169FFF7CDFC28B96369E5221A7033
:10AE1000236801221A7110BD0129F8B504460D46B8
:10AE2000164673D9C369994270D20378022B3BD07E
:10AE3000032B4AD0012B65D18FB207EB5707416A2C
:10AE4000BFB201EB5721FFF7ACFC00285BD1C7F381
:10AE5000080315F001052344F2B206D093F834102C
:10AE600001F00F0141EA0212D2B20137616A83F8A0
:10AE70003420BFB201232371204601EB5721FFF795
:10AE800090FC00283FD1C7F30807274415B1C6F34B
:10AE9000071606E097F83430C6F3032623F00F03B5
:10AEA0001E4387F834602EE0416A01EB1521FFF75D
:10AEB00078FC40BB6D0005F4FF75631983F83460BE
:10AEC000C6F3072683F835601DE0416A01EBD51112
:10AED000FFF767FCB8B9AD0005F4FE75631993F888
:10AEE0003720120602F070421643C6F3072283F899
:10AEF000346083F83520320C360E83F8362083F820
:10AF0000376000E0022001232371F8BD0220F8BD64
:10AF1000F8B505460F4631B9C6686EB1C3699E42A1
:10AF200028BF012609E0FFF7BAFE01283BD9EB69EB
:10AF3000984239D33E4600E001263446EB6901349D
:10AF40009C4204D3012E01D80020F8BD02242846DB
:10AF50002146FFF7A4FE48B1411C02D14FF0FF305B
:10AF6000F8BD01281FD0B442E8D1EDE728462146BC
:10AF70006FF07042FFF750FF98B947B92B69EC604A
:10AF80005A1C0CD0013B2B6101236B7107E0284652
:10AF900039462246FFF740FF0028EFD001E0204667
:10AFA000F8BD0128DAD00120F8BD2DE9F843C688A4
:10AFB00004460136B6B20F4616B90420BDE8F88340
:10AFC0000369002BF9D016F00F085CD1C16801337A
:10AFD0000361006819B90389B342EED953E082785E
:10AFE000013A12EA16124ED1FFF759FE0128054622
:10AFF00002D80220BDE8F883421C02D10120BDE83E
:10B00000F8832068C3699D4237D3002FD5D0E1680B
:10B01000FFF77EFF054600283ED00128E9D0431CFB
:10B02000ECD020680021FFF7BCFB0028E6D12368A4
:10B03000343300271F540130B0F5007FF9D1D4F824
:10B04000009029464846FFF71FFEC9F830002368E4
:10B05000FAB2997891420DD901221A712068002123
:10B06000FFF79FFB01370028C8D123681A6B013214
:10B070001A63ECE7196B8A1A1A63E560206829469F
:10B08000FFF702FE20612368E68003EB48133433A8
:10B0900063610020BDE8F8830720BDE8F883000065
:10B0A0002DE9F0410B7804462F2B0D4601D05C2B87
:10B0B00002D10135002301E003689B69A3602B786E
:10B0C0001F2B35D820460021FFF752FE0023636175
:10B0D000BDE8F08100228B5C501C2E2B85B23ED047
:10B0E0002F2B41D1202B0D448CBF20232423F3721E
:10B0F00020460021FFF73CFE30B920682169FFF7A8
:10B1000050FB002800F09380A369DB7A002800F050
:10B11000A780042840F0C28013F0200F03F004033E
:10B1200000F0A3800022A2606261002B40F09A80B0
:10B130002B7829462F2B05F10105F9D05C2BF7D090
:10B14000A66900232022F25401330B2BFAD10B788D
:10B150002E2BBFD0002003460827024616E0022A05
:10B1600062D0B3540246B6E75C2BBBD0202B5BD831
:10B17000B8E72F2B28D05C2B26D02E2B0CD1082FF4
:10B1800052D192003846D2B20B272B465D1CCB5CC5
:10B19000ADB2202BEDD815E0B84245D213F0800FA8
:10B1A00006D0DFF8FCC0803B1CF8033042F00302FD
:10B1B000DFF8F08018F801CFBCF1000F1DD09C45DE
:10B1C000F8D131E0042300E0002368B330780D4467
:10B1D000E52804BF05203070082F04BF9200D2B2CA
:10B1E00002F00300012802F00C0208BF43F0100334
:10B1F000042A08BF43F0080379E7A3F1410CBCF12E
:10B20000190F02D842F0020208E0A3F1610CBCF170
:10B21000190F03D8203B42F00102DBB200F1010C10
:10B2200033541FFA8CF0B0E70620BDE8F081626964
:10B2300013789BB1D37A1E070BD4A7690346D15C60
:10B240000133FE1816F8016C8E4202D10B2BF6D199
:10B250005AE720460021FFF7A8FE4DE7042053E7F8
:10B26000590708D50020BDE8F081002B14BF042049
:10B270000520BDE8F0816369DA7AD2060BD5597DE5
:10B280001A7D42EA0122D97E9B7E43EA012343EAEA
:10B290000243A3604CE70520BDE8F081BDE8F081E2
:10B2A0009A6701008A67010038B500210446FFF75C
:10B2B0005FFD054618BB20682169FFF772FA054655
:10B2C000E8B963691B78E52B05D023B1204601213D
:10B2D000FFF76BFEEDE720682169FFF762FA05468C
:10B2E00068B960692B460022C2540133202BFAD181
:10B2F0000B22A169FFF70CFA236801221A71284674
:10B3000038BD10B504230446216991B12068FFF7C8
:10B3100048FAA8B963691A788AB1E52A02D0DB7ABB
:10B320001B070FD520460021FFF73FFE40B903461B
:10B33000EAE7184633B100222261184610BD042006
:10B340000346F8E710BD012970B504460D4622D921
:10B35000C36999421FD2E3699D4205D2204629461E
:10B36000FFF79DFC064608B9002070BD012812D0E9
:10B37000411C0ED0204629460022FFF74DFD58B94A
:10B3800023695A1C03D001332361012363713546BD
:10B39000E1E7012070BD022070BD000038B50C4609
:10B3A00080B9094A1368154603B1187014B1002317
:10B3B000237004E0607808212246FFF7B7F82C607C
:10B3C000002038BD0B2038BDE00B00202DE9F041F6
:10B3D0008CB0002305460CA840F82C1D2B601746A6
:10B3E00002F01F0605A902F01E02FFF759FA02AB90
:10B3F0000B9318B905A80199FFF752FE0A9C10B9E2
:10B40000002C08BF062017F01C0F44D048B10428B8
:10B4100002D105A8FFF748FF46F008060A9C30B1A4
:10B420006DE0E37A13F0110F68D17B0762D4370720
:10B430003AD504F0F3F9227D677DC0F30723E17E5E
:10B4400042EA0727A27EA073E373030C000E237465
:10B450006074002342EA01220598E3722377637740
:10B46000A377E377A376E3762375637552EA0747FC
:10B470004FF00103037117D03946D0F83080FFF741
:10B4800062FF00283BD10598013FC7604146FFF7A6
:10B4900088F948B133E0002831D1E37AD8062BD4BB
:10B4A000B90701D5DA0729D43307059B48BF46F011
:10B4B00020061A6BAE71EA612C62227D617DE07E0E
:10B4C00042EA0121A27E42EA002242EA01422A61C6
:10B4D000A27FE17F120442EA0162217F00200A4339
:10B4E000617F2B60DB8842EA0122EA60A860A861E4
:10B4F000AB8004E0082002E0042000E007200CB04C
:10B50000BDE8F0812DE9F84F9A4600230446AAF8D9
:10B5100000300F460068A1881546FFF749FB002858
:10B5200040F0AC80A379180600F1A480D90740F15F
:10B53000A480E268A368D31A9D4243D99DB241E03A
:10B54000A368C3F30802002A40F08180206890F8C5
:10B5500002B00BF1FF3B0BEA532B1BF0FF0B34D077
:10B56000D4F8009061694846FFF78EFB002838D078
:10B570005FEA552800EB0B0645D099F802300BEB3B
:10B5800008029A42C4BFCBEB03081FFA88F85FFA9F
:10B5900088F399F8010039463246FEF733FFA37964
:10B5A00000284DD15B0621D44FEA4826B6B2A368E5
:10B5B000AD1B3344A360BAF8003037443344AAF8D3
:10B5C0000030ADB2002DBBD151E00BB9206902E0D3
:10B5D0006169FFF764FB012803D9421C2FD0606129
:10B5E000BEE7A37963F07F03A37143E0A369981BCF
:10B5F0004045D9D207EB402004F124014FF40072FA
:10B60000FFF786F8D0E7A269B2421FD0A37904F110
:10B61000240813F0400F0AD0012399F80100414695
:10B62000FEF732FFA37958B923F04003A3712368D2
:10B630004146587832460123FEF7E4FE30B1A37943
:10B6400063F07F03A3710120BDE8F88FA661A168B4
:10B650003846C1F30801C1F50076B6B2B54238BF2D
:10B660002E46214424313246FFF752F89FE7284600
:10B67000BDE8F88F0220BDE8F88F0720BDE8F88FFD
:10B680002DE9F84F994600230446A9F800300F46EB
:10B690000068A1881546FFF78BFA002840F0BF80AC
:10B6A000A37918065CD4990740F1B880E368DD42BD
:10B6B00028BF002536E05FEA552800EB0A067AD05D
:10B6C0009BF802300AEB08029A42C4BFCAEB030897
:10B6D0001FFA88F89BF80100394632465FFA88F372
:10B6E000FEF7D2FE002876D1A369991B41450BD203
:10B6F00004F1240007EB41214FF40072FFF708F832
:10B70000A37923F04003A3714FEA4826B6B2A36899
:10B71000AD1B3344A360B9F8003037443344A9F873
:10B720000030ADB225B3A368C3F30802002A5AD192
:10B73000206890F802A00AF1FF3A0AEA532A1AF0A8
:10B74000FF0A1ED17BB9216921B9FFF7E1FB014650
:10B75000206169B10129A37910D163F07F03A3713E
:10B760000220BDE8F88F6169FFF7D2FB0146F0E7E0
:10B77000A368E26893424AD9E36048E04A1C2BD0B0
:10B780006161A3795B060CD5214651F8243BA2697F
:10B7900058780123FEF778FEA379E8B923F0400337
:10B7A000A371D4F800B061695846FFF76DFA00281C
:10B7B00081D1A379D1E7A369B34213D0A268E3682A
:10B7C0009A420FD29BF8010004F124013246012372
:10B7D000FEF718FE30B1A37963F07F03A371012057
:10B7E000BDE8F88FA661A0683946C0F30800C0F52F
:10B7F0000076B6B2B54238BF2E46204424303246D9
:10B80000FEF786FFA37943F04003A3717FE7A37996
:10B81000002043F02003A371BDE8F88F0720BDE8A6
:10B82000F88F38B50446A1880068FFF7C1F90028F1
:10B830004AD1A37903F0200202F0FF00002A43D08E
:10B840005B060DD5214651F8243BA26958780123A7
:10B85000FEF71AFE002836D1A37923F04003A37126
:10B860002068E169FEF79DFF70BB256AEB7A43F023
:10B870002003EB72E3682B77A3891B0A6B77E389BC
:10B88000AB77E37BEB772369AB76238A1B0AEB76F6
:10B89000638A2B75638A1B0A6B7503F0BFFFC0F3C5
:10B8A0000723A875EB75030C000E2B766876A37939
:10B8B000012223F02003A37123681A712068BDE8D8
:10B8C0003840FFF787B9012038BD10B50446FFF7AF
:10B8D000A8FF00B9206010BD10B9024B1870704766
:10B8E0000B207047DA0B002000B58DB00CAB43F88D
:10B8F0002C0D184605A90022FEF7D2FFF8B902ABBD
:10B9000005A801990B93FFF7CBFB98B90A9B0BB9DC
:10B91000079A0CE0DA7AD20610D5597D1A7D42EAF0
:10B920000122D97E9B7E43EA012343EA0242059B22
:10B930009A6104E0042808BF052000E005200DB04E
:10B940005DF804FB70B504460D460068A188FFF75A
:10B950002FF9002840F09380A279160600F18C8020
:10B96000E3689D4203D912F0020F08BF1D46002272
:10B97000A368A2600DB900254DE0206886787602A4
:10B980006BB1013B691EB1FBF6F1B3FBF6F29142DC
:10B9900005D372421340A360ED1A61690AE0216980
:10B9A00039B9FFF7B5FA012801462DD0013052D040
:10B9B000216161610029DED0B5421AD9A3792068DE
:10B9C0009A0704D5FFF7A4FA014618B910E0FFF76B
:10B9D00066F901464B1C3ED0012915D92368DB6965
:10B9E000994211D2A36861613344A360AD1BE3E7C0
:10B9F0003546A3682B44A360C5F30803002BBAD0D7
:10BA00002068FFF741F920B9A37963F07F03A371A0
:10BA100032E000EB5525A368C3F3080313B3A26912
:10BA200095421FD0A37904F1240613F0400F0AD0E9
:10BA30002368314658780123FEF726FDA37958B9CB
:10BA400023F04003A3712368314658782A46012326
:10BA5000FEF7D8FC28B1A37963F07F03A37101201E
:10BA600070BDA561A368E268934207D9E360A3793A
:10BA700043F02003A37101E0022070BD002070BDDF
:10BA800010B586B0044606A840F8141D00222146D1
:10BA9000FEF706FF10BB03ABA36120460199FFF739
:10BAA000FFFAB0B963696BB1DA7AD20615D5597D60
:10BAB0001A7D42EA0122D97E9B7E43EA012343EAB2
:10BAC0000243A36023682046DB880021A380FFF7A0
:10BAD0004FF9042808BF052000E0052006B010BD7E
:10BAE0007FB504460E460068A188FFF761F8054659
:10BAF000E8B926B920462946FFF73AF916E001AB26
:10BB0000A3612046FFF7FDFB042801D1256100E079
:10BB100060B920463146FEF705FE20460021FFF7BA
:10BB200044FA042802D10023236100E00546284698
:10BB300004B070BD30B58DB00CAB43F82C0D0D4684
:10BB4000184605A90022FEF7ABFE044678B902AB01
:10BB500005A801990B93FFF7A3FA044638B90A9B8D
:10BB600023B105A82946FEF7DDFD00E006242046A6
:10BB70000DB030BD2DE9F74F02AB43F8040D8846F8
:10BB80001646114618460022FEF78AFE0446002893
:10BB900061D13368DF691A69B91E8A4202D8C8F8D0
:10BBA000002058E093F80090B9F1010F11D102275D
:10BBB000054630683946FFF772F8431C3CD001282F
:10BBC0003CD000B9013533680137DB699F42F0D3BF
:10BBD00037E0596A02460346054652B9306801F11A
:10BBE000010AFEF7DEFD58BB3368514634334FF48B
:10BBF0000072B9F1020F587893F800C006D15CEAE0
:10BC0000002C08BF01350233023A11E093F802A07C
:10BC100093F803B04FEA0A4A4AEA0B6A4AEA0C0C64
:10BC20004CEA002020F0704000B901350433043A9A
:10BC3000013F92B2D1D104E0012402E0022400E0ED
:10BC400004463368B9F1030F08BF01221D6108BF24
:10BC50005A71C8F80050204603B0BDE8F08F70B5A7
:10BC60000446A1880068FEF7A3FF054600283AD1E4
:10BC7000A379190631D49A0731D5A668E268B24291
:10BC800031D943F02003E660A37120682EB9216901
:10BC9000FFF759FB2661054619E06169FEF7FFFFD2
:10BCA000431C06461DD0012801D1022510E0206862
:10BCB000C3699E4217D261696FF07042FFF7ACF81A
:10BCC000054628B920683146FFF73DFB054655B1CA
:10BCD000A37963F07F03A37105E0022503E0072544
:10BCE00001E00125F4E7284670BD30B595B014ABEE
:10BCF00043F84C0D184606A90122FEF7D1FD002895
:10BD000051D103AB06A801990C93FFF7C9F900289C
:10BD100049D10C9BDB7A9A0601D5062043E00B9BA8
:10BD200033B1DA7A12F0010F0CBF0020072000E0D7
:10BD300006205D7D1C7DD97E9A7E002833D1DB7A7A
:10BD400044EA052442EA0122DB0642EA04441BD508
:10BD5000012C15D90DA806A91C22FEF7D9FC0DA8A7
:10BD600002210F94FFF704F8E8B90DA8FFF7C9FA0C
:10BD700040B10D9B9B699C4204D0042804D012E082
:10BD8000022010E007200EE006A8FFF733F850B9B4
:10BD90001CB90698FEF71EFF05E006982146FFF73E
:10BDA000D2FA0028F5D015B030BD2DE9F04F91B092
:10BDB00010AC44F82C0D03F031FD09A9074601220F
:10BDC0002046FEF76DFD0446002840F0CA8006AB11
:10BDD00009A805990F93FFF763F9044658B10428A1
:10BDE00040F0BF800F9BDB7A03F0200303F0FF04D9
:10BDF0001BB10624B5E00824B3E009982146FFF7FB
:10BE000087F8064600287FD0012E7FD0731C08BF1C
:10BE1000012474D021460998FEF7C3FC044600288B
:10BE20006DD1099D31462846FEF72EFF05F13408F5
:10BE30008446002108F804100134B4F5007FF8D1DD
:10BE4000202208F8012001310B29F9D1102126FA0E
:10BE500001FBFBB285F84A300193C7F3072385F84D
:10BE60004B300293C7F3074385F84C302E240393DD
:10BE70005FFA8BFAF3B23F0EC6F307294FEA1B2B8A
:10BE800085F83F1085F8344085F84D7085F84E30C0
:10BE900085F84F9085F848A085F849B005F1540021
:10BEA0004146CDF800C00493FEF732FC099985F8AD
:10BEB000554008780B9A0328DDF800C003D1886A42
:10BEC000824208BF002285F86E20C2F30720120CC0
:10BED00085F86820120A85F86F0085F869208D784A
:10BEE0000DB3099801210CF101020171C0F830C0B5
:10BEF00000210092FEF755FC009A044640B10998D3
:10BF00003146FFF720FA2CE00724F8E70224F6E791
:10BF1000002108F804100134B4F5007FF8D1013D88
:10BF2000EDB29446DCE709A8FFF7BEF90446002805
:10BF3000E5D10E9B1022DA72019A09989A75029A3D
:10BF40005F76DA75039A83F81B901A76049A83F861
:10BF500014A09A7683F815B001230371FEF73AFE18
:10BF60000446204611B0BDE8F08F30B58DB00CAB63
:10BF700043F82C0D0C461546184605A90122FEF77C
:10BF80008FFCE0B902AB05A801990B93FFF788F885
:10BF9000A8B90B9BDB7A9B0610D40A9B73B1D97AA4
:10BFA00005F0270221EA0201144041EA0402059843
:10BFB000DA7201230371FEF70DFE00E006200DB0DA
:10BFC00030BD10B58CB00CAB43F82C0D0C461846A8
:10BFD00005A90122FEF764FCE8B902AB05A80199A6
:10BFE0000B93FFF75DF8B0B90B9BDB7A9B0611D47E
:10BFF0000A9B7BB1E28805989A75E288120ADA7585
:10C00000A2881A76A288120A5A7601230371FEF7D3
:10C01000E1FD00E006200CB010BD30B59BB01AABBE
:10C0200043F8640D0C4618460CA90122FEF738FCB3
:10C0300000287DD10C9B0CA81393019903AB12939C
:10C04000FFF72EF8002873D1129BDB7A9A0664D48E
:10C05000119900295FD006A80B311522FEF758FB75
:10C0600013A80CA91C22FEF753FB13A82146FFF7C7
:10C0700017F800284DD004285AD113A8FFF714F957
:10C08000002855D1189C132204F10D000DF11A015E
:10C09000FEF73EFB9DF81830012243F02003E372C7
:10C0A0000C9B1A71159B0E9A9A4238D0E37ADB06E4
:10C0B00035D5237D617DE27E43EA0121A37E139D78
:10C0C00043EA022343EA01412846FEF7DDFD01462B
:10C0D00068B32846FEF765FB139B48BB93F85520D1
:10C0E0002E2A1CD11A78032A159A02D1996A8A42FB
:10C0F00000D01046C0F3072283F86E00000C83F8CE
:10C100006F2083F868000122000A83F869001A7121
:10C1100005E008200CE004200AE0062008E00CA856
:10C12000FEF768FE20B90C98FEF754FD00E00220EF
:10C130001BB030BD72B6044B1A68511C1CBF0132D3
:10C140001A601868704700BFC80B0020034B1868BE
:10C1500018B10138186000B962B67047C80B0020EA
:10C1600030B5184D8DB002AC0FCD0FC40FCD0FC43C
:10C1700095E803000E2384E80300079302A84FF418
:10C1800000430B9302F0D8FF00230CA800F82C3DCD
:10C190008DF805308DF80630FDF710FF0A4B0120B1
:10C1A000DA6942F00302DA61FDF7F0FE074B602224
:10C1B00083F818234FF08072C3F880211A600DB005
:10C1C00030BD00BF1C6801000000084000E100E035
:10C1D000042838B505460C4600D821B9044840F279
:10C1E0003511FCF78BF8034B03EBC5056C6038BDCC
:10C1F00044680100F00B0020042870B504460D4689
:10C20000164606D84B1CDBB2182B02D8D3B23B2BF8
:10C2100004D909484FF4AD71FCF770F8074B0022C0
:10C2200013F8341003F8342003EBC4025570C9B27C
:10C23000967003F8341070BD44680100F00B0020C4
:10C24000042870B505460C46164601D801B122B93E
:10C25000064840F27D11FCF751F8054B03EBC5058C
:10C260006B782370AB78337070BD00BF44680100F9
:10C27000F00B0020042810B5044604D9044840F20D
:10C280009511FCF73BF8034B13F8340010BD00BFC9
:10C2900044680100F00B0020042838B5044604D996
:10C2A000094840F2AB11FCF729F8084B03EBC40234
:10C2B00052681D4622B904484FF4D771FCF71EF8A6
:10C2C000012305F8343038BD44680100F00B00202C
:10C2D000042810B5044604D904484FF4E271FCF771
:10C2E0000DF8034B002203F8342010BD4468010010
:10C2F000F00B002070B5064620B918484FF4F171D4
:10C30000FBF7FCFF0023164C164D2268934209DC14
:10C3100005EBC302516819B945F83310566019E0AE
:10C320000133F0E72368082B03DD0F480A2101F0F1
:10C3300041FB2368082B04DD084840F2F711FBF7A6
:10C34000DDFF23680022013345F8332005EBC305E8
:10C350006E602360D8B240B270BD00BF4468010077
:10C36000E40B0020180C00205C68010010B5041ECE
:10C3700003DB084B1B689C4204DD074840F2122196
:10C38000FBF7BCFF054A002342F8343002EBC4043B
:10C39000636010BDE40B002044680100180C00200D
:10C3A00070B5041E0D4604DB0C4B1B689C4200DC80
:10C3B00021B90B4840F22D21FBF7A0FF094B03EBFD
:10C3C000C40252681E4622B905484FF40C71FBF7AF
:10C3D00095FF013546F8345070BD00BFE40B0020D6
:10C3E00044680100180C002010B5041E03DB074B45
:10C3F0001B689C4204DD064840F24621FBF77EFFA5
:10C40000044B002243F8342010BD00BFE40B002091
:10C4100044680100180C002038B5044620B90848CB
:10C4200040F25A21FBF76AFF064A1368154623B10A
:10C43000A34202D0044801F0AFFA2C6038BD00BF1F
:10C4400044680100E80B00208768010038B5124BF2
:10C45000421E9A42044604D910484FF41E71FBF75D
:10C460004DFF0F4B1B6823B90C4840F27B21FBF7B3
:10C4700045FF0C4D4FF47A726B68E103B1FBF2F1AA
:10C480001944012021F07F41FDF760FD0423AB61D9
:10C49000054B01221A6038BDFEFF0100446801000F
:10C4A000E80B00200000084088030043034B0022F3
:10C4B0001A60034B04229A61704700BF880300434F
:10C4C00000000840014B5868704700BF000008405A
:10C4D00038B505460C46B9B10C4B4A1E9A4204D9F0
:10C4E0000B4840F2C221FBF709FF0A4BE4035868EE
:10C4F0004FF47A73401B20F07F40B4FBF3F4A0426A
:10C5000034BF0020012038BD012038BDFEFF0100EE
:10C5100044680100000008400C4B421E9A4210B5CE
:10C52000044604D90A4840F2E121FBF7E7FE094B33
:10C53000E4034FF47A725968B4FBF2F45A68521A61
:10C5400022F07F42A242F9D310BD00BFFEFF0100DE
:10C550004468010000000840054B5A685968914240
:10C56000FCD0034A526859689142FCD0704700BF22
:10C570000000084010B5044620B904484FF4467145
:10C58000FBF7BCFE024B1C6010BD00BF44680100FD
:10C59000EC0B002037B580B1002002F093FD02AB18
:10C5A00043F8040D184603F0B3FB074C05460FCDC6
:10C5B0000FC40FCD0FC42B682360044B1B6803B15D
:10C5C000984703B030BD00BF5C2A0020EC0B002070
:10C5D000F8B5364C2369E5691D40E90703D502F03B
:10C5E000D3FD0123A361AA0702D46B075CD551E0F8
:10C5F000A168002001F5004121F07F41FDF7A6FC74
:10C600000223A3610120FFF7C5FF2949294B4A688E
:10C6100093F900000E46904201D1002425E01A70E3
:10C620000024254911F83430B3B1E2008B189F780B
:10C6300070687FB287420FD1587840B2013005D080
:10C6400058781B4B40B29B68984205D18B185A68AA
:10C6500012B15B68204698470134052CE1D1DCE734
:10C66000164B53F834202AB90134154B1B689C42F1
:10C67000F6DDBAE753F83420013A43F83420002AB3
:10C68000F2D103EBC4035A68002AEDD05B6860B2B4
:10C690009847E9E70B4B00221A60044B04229A6189
:10C6A000094B1B6803B19847F8BD00BF0000084064
:10C6B0005C2A002009020020F00B0020180C00204A
:10C6C000E40B002088030043E80B002038B5044643
:10C6D00020B9094840F25B31FBF710FE074DFFF728
:10C6E00029FD0FCD0FC40FCD0FC42B682360BDE80B
:10C6F0003840FFF72BBD00BF446801005C2A0020D2
:10C700002DE9F0410E46044600B121B9134840F22C
:10C710007A31FBF7F3FD124F124DFFF70BFD0FCDF2
:10C72000D7F80480D7F808C00FC40FCD0FC42B680A
:10C7300023603B699B0702D540F2E73308E0CCEB6E
:10C74000080CCCF30E0C4FF47A7303FB0CF3DB0BE9
:10C750003360BDE8F041FFF7F9BC00BF4468010059
:10C76000000008405C2A0020F7B50E46044620B9B8
:10C770001F4840F2A731FBF7C1FD0023236220468A
:10C7800003F04EFF1B4B01901A6872B9186001A8A4
:10C7900003F0BEFA184C05460FCD0FC40FCD0FC4E1
:10C7A0002B681648236001F0F7F8154C0020E76964
:10C7B000E0616568FDF7EAFB636A13F0060FFBD1E1
:10C7C0001EB90F4B9B685B1B01E04FF400430C4C00
:10C7D000A360E3685D1BE560019802F0C9FC0020DE
:10C7E00002F0DAFC0120FDF7D1FBE76103B0F0BDF8
:10C7F00044680100802A00205C2A0020C6680100ED
:10C8000000000840024A01231370024A1370704767
:10C81000680C0020DC2A002010B51348134C01F0EE
:10C82000C9F8202363606420FFF776FE104BDA69B5
:10C83000920717D401225A610223A3630D4B5A6851
:10C840000B4BDB699B070AD40A4B5B689B1A23F0EE
:10C850007F43B3F5203FF3D9074801F0ABF8034B12
:10C8600003229A6310BD00BFE368010000A00040EE
:10C8700000600040000008401069010010B51F482A
:10C880000121FBF7F9FE1E480121FBF7F5FE01210E
:10C890000B4600200A22FCF7A9FD002001460A22CF
:10C8A0000123FCF7A3FD1748032383631649FDF713
:10C8B0006BF9164B164C402283F808234FF4807214
:10C8C000C3F8802121461A600120FFF781FC002275
:10C8D0000B210120FFF790FC0120FFF7DDFC214632
:10C8E0000220FFF775FC022017210022FFF784FCCD
:10C8F000BDE810400220FFF7CFBC00BF00C202001D
:10C9000000F2020000A000400C02002000E100E064
:10C9100005C8000008B5074B4FF48072C3F88020AB
:10C920000548FDF757F9BDE8084004480021FBF72A
:10C93000A3BE00BF00E100E000A0004000F2020042
:10C9400008B50348FDF752F9024B187008BD00BF47
:10C9500000A00040842A002070B510F47F4F88B0FA
:10C96000044604D028484FF48D71FBF7C7FC02F051
:10C9700087FB002843D10A23ADF80C300423ADF81F
:10C980000E306B4404930123ADF8143002AB0693D0
:10C990001E48022303A9ADF81C308DF80440FDF7B2
:10C9A0006DFA1B4B18701A781D4612F0800F01D0DB
:10C9B00018781BE0174B5E682B78154C012B12D1B1
:10C9C000154B1A6922F004021A6130BF114B5B68E3
:10C9D0009B1B23F07F43B3F5804FEDD9FFF71CFF7E
:10C9E000F6232370E8E7237813B1207840B208E0FB
:10C9F0009DF809009DF8083043EA002001E06FF03F
:10CA00000B0008B070BD00BF3669010000A00040F7
:10CA1000842A00200000084000ED00E0F0B510F48A
:10CA20007F4F87B004460D46174604D12B4840F28D
:10CA30006B11FBF763FC25B928484FF4B671FBF77F
:10CA40005DFC260AB74207D2244840F26D11FBF77D
:10CA500055FC6FF00A003EE002F012FB002838D1CE
:10CA60000A23ADF804300423ADF8063000AB02937E
:10CA70001B48012301A9ADF80C3004958DF8004046
:10CA8000ADF81460FDF7FAF9164B18701A781D46C8
:10CA900012F0800F01D0187819E0134B5E682B78E4
:10CAA000104C012B12D1114B1A6922F004021A61A9
:10CAB00030BF0D4B5B689B1B23F07F43B3F5804F6A
:10CAC000EDD9FFF7A9FEF6232370E8E7207840B2FE
:10CAD00001E06FF00B0007B0F0BD00BF3669010048
:10CAE00000A00040842A00200000084000ED00E083
:10CAF00010B504468AB00920FFF72EFF002806DA99
:10CB0000504B80B21880504800F054FF98E0022C3F
:10CB100051D14FF4815069462822FFF77FFF18B9A1
:10CB20004A48694600F038FF41F22300694628224E
:10CB3000FFF774FF18B94648694600F02DFF41F22F
:10CB4000210069462822FFF769FF18B94148694664
:10CB500000F022FF41F2220069462822FFF75EFF23
:10CB600018B93D48694600F017FF1C20FFF7F4FE96
:10CB7000011E02DB394800F00FFF1920FFF7ECFE21
:10CB8000021E08DB4FF47A7392FBF3F1344803FB87
:10CB9000112200F001FF1820FFF7DEFE011E02DB6C
:10CBA000304800F0F9FE1020FFF7D6FE011E02DB30
:10CBB0002D4800F0F1FE00F053FD0F20FFF7CCFEF2
:10CBC000011E07DB294B8AB21A80C4B1284800F045
:10CBD000E3FE00E09CB11120FFF7BEFE011E0EDB5C
:10CBE0004FF6FD73994203DD224800F0D5FE06E0C2
:10CBF0004FF4B462204891FBF2F200F0CDFE092020
:10CC0000FFF7AAFE002810DB0E4B82B21A80ACB1EF
:10CC10004FF47A7290FBF2F102FB11026423174881
:10CC200092FBF3F200F0B8FE00E03CB10A20FFF7FF
:10CC300093FE011E02DB124800F0AEFE00F010FD74
:10CC40000AB010BD0A0200204E6901006C690100A3
:10CC50008B690100AA690100C9690100E869010046
:10CC6000096A0100376A0100596A0100862A00201A
:10CC70007B6A01009D6A0100CB6A0100F36A010032
:10CC8000176B0100044B1A7822B1002201201A70A0
:10CC9000FFF72EBF704700BF680C002038B50D4B62
:10CCA00004461A781D46904213D004280BD8DFE8BA
:10CCB00000F003030F0F0F0001280CBF00460020F7
:10CCC00002F0A6FF04E0044840F2AF31FBF716FB88
:10CCD0002C7038BD690C0020396B01000120FFF772
:10CCE000DDBF000010B5084800F056FE074B0220DB
:10CCF000C3F88000064B01241C7000F0FDFA2046AA
:10CD0000BDE81040FFF7CABF4C6B01000060004057
:10CD10001C02002013B517480121FBF7ADFC0121CF
:10CD20000B4603200422FCF761FB032002210122B1
:10CD30000023FCF75BFB104C0022134600920320FB
:10CD40000221FCF711FB23785BB2013303D10B48BE
:10CD5000FFF7D0FA207000200949FFF739FA0020C8
:10CD600001213722FFF748FA002002B0BDE8104049
:10CD7000FFF792BA00C202001D020020DDCC0000C5
:10CD8000E5CC000008B50D4B1A7852B2013203D041
:10CD9000187840B2FFF728FB022000F09BFA084BFE
:10CDA0000222DA67002002F033FF0020FFF776FF4F
:10CDB000BDE80840034800F0EFBD00BF1D020020A1
:10CDC000006000405B6B01002DE9F04F0C4691B014
:10CDD0001746002A00F00982AB4B1A789946002AC0
:10CDE00000F0E6801B78A94E012B04D10220FFF74A
:10CDF00055FFFF233370A64B1A7852B2013204D08C
:10CE00001878052140B2FFF7CBFA002C00F0FD8026
:10CE1000012002F0FDFE96F900303A2B40F0CE8062
:10CE2000DFF8A4B207AC5D460FCD0FC40FCD0FC421
:10CE30002B6807A8236000230F9303F0F1FB954BA9
:10CE4000DBF8202093F800A05D46002A18BF8AF086
:10CE5000010A914A9846127852B1BAF1000F07D0F0
:10CE600019788E4A40F64C63002918BF134600E03B
:10CE70003C238B4A8B4C116810600B44984208BFCE
:10CE80002378EA6806BF0133DBB2012323702178DF
:10CE90002B690092AA68013301926A688248029263
:10CEA0002A68DFF800B203926A6900F075FD237802
:10CEB000012B40F281809BF800307C4CFA2B84BF20
:10CEC000FA238BF80030DFF800E22B6A98F800C0F4
:10CED00013F1000BBEE80F000FC4BEE80F000FC433
:10CEE000DEF80030204618BF4FF0010B5FFA8CFCD3
:10CEF00040F82039012188F800B0CDF814C0FFF7C0
:10CF000033FC0020FFF746FB694CA9686A682B6870
:10CF1000684898F80050002D18BF204600906648D9
:10CF200000F03AFDDDF814C0DC452ED0594B1A78DC
:10CF30001D4622B1614800F02FFD002410E060483A
:10CF4000F9E7172AC8BF00238DF81A3020469DF94B
:10CF50001A109DF91B200134FFF74EF9052C14D04F
:10CF60000DF11B0220460DF11A01FFF769F92A782D
:10CF70009DF81A30002A0CBFFF2201221344DBB2B5
:10CF80005AB2002ADDDA1723DEE74E4B424C1A680C
:10CF9000D71B1F60BAF1000F01D0002323700420BB
:10CFA000FFF77CFE23781BB1474B5B68312B02DC1B
:10CFB000FFF7E8FE19E10027FF2333703378414C77
:10CFC0005AB201321CD1414B1A6841F65003A2F209
:10CFD0001F529A4217D8236843F23132FB1A23F0CA
:10CFE0007F43A3F56643673B93420CD899F8003022
:10CFF000042B02D00320FFF751FE0023337002E020
:10D00000224A013313702760EFE0204602F000FE51
:10D010002C4B1B68FF1A2D4B27F07F471F6096F99A
:10D0200000305A1C00F0E180A7F21F5140F6833215
:10D0300091420AD9A7F58F570C3F974207D9022092
:10D04000FFF72CFEFF22114B93E0214600E0012167
:10D050001B2B12DC152B58DA102B43D004DC002BD1
:10D060003DD080F2C280B6E0122B40D03CDB132BC7
:10D0700000F0BB80142B41D0ADE0232B68D029DC1D
:10D080001C2B134A5CD149E0690C00201E020020D1
:10D090001D020020582A0020800C00202CF2FFFFE7
:10D0A000780C00201C0200206B6B01005C2A002021
:10D0B000F56B0100216C01009F6B0100CF6B01003B
:10D0C000FA6B0100700C0020882A00206C0C0020F4
:10D0D000740C0020392B4EDD3A2B5BD07BE000290D
:10D0E0007ED182E0424B00E0424B19707DE0414B23
:10D0F0001B788B4274D0404A136276E000296FD0CF
:10D100003E4A002313603E4A18E03D4A10784840EA
:10D110001070002969D0394A153B34E013788B42EE
:10D120005ED136490B6803F00F00C3F303140A23E2
:10D1300003FB04033048436000230B60137054E08A
:10D1400010784840107000294FD02C4A1D3B1AE03F
:10D150002B4B1A788A4243D128490A6802F00F0003
:10D16000C2F301140A2202FB040223488260002257
:10D170000A601A7039E0224A10784840107000297D
:10D1800033D01E4A243B012101FA03F311681943ED
:10D1900011602AE01A4B1B788B4221D1174C0A21CF
:10D1A0002368154AC3F3011503F00F0001FB0500C6
:10D1B000D060C3F34320C3F34035013801FB0500C1
:10D1C0001061980B2060C3F3834300F00F0001FB54
:10D1D0000301516109E00B484FF43E71FBF78EF8F3
:10D1E0000220FFF75BFDFF23337011B0BDE8F08F25
:10D1F000800C0020810C0020882A00207C0C00205C
:10D20000740C0020396B010010B5044618B9194898
:10D210006521FBF773F8184B00221C60174B4FF683
:10D22000FF71C3F81021C3F80821C3F80C21C3F81B
:10D230001C11134B08341A60083434F8102C196888
:10D2400012B10A431A60F7E70C4AC2F808111B68CA
:10D250000221C2F80C310B4B602283F80123C3F882
:10D260008011196083F809234FF40072C3F88021FC
:10D270001A6010BD256C01008C0C0020006000407D
:10D28000840C002000E100E0024B0022C3F81021D2
:10D29000704700BF00600040064B4FF6FF72C3F8B6
:10D2A0001C21054A1168C3F818111268C3F810212F
:10D2B000704700BF00600040840C002010B5044C93
:10D2C00001232370FFF7E8FF0023237010BD00BF88
:10D2D000880C00200F2810B5044603D90448D32138
:10D2E000FBF70CF8034B002223449B001A6010BD8F
:10D2F000256C0100800883100F2810B5044603D95F
:10D300000748E721FAF7FAFF012202FA04F1054B78
:10D31000C3F81C11044B23449B001A6010BD00BFCE
:10D32000256C01000060004080088310294B2DE926
:10D33000F0471B781BB9284BD3F8049001E04FF05D
:10D340000009264AD2F81431D2F8102112EA030853
:10D350003ED0234B1C6808EA04040127002C32D07D
:10D36000B4FA84F2D2B2C2F11F06B740072E24EA03
:10D3700007041A4B05DCD3F80021B30022FA03F3AB
:10D3800005E0D3F80431C2F117029200D34003F054
:10D39000070324225A43134B9B581F42124B0CBFC6
:10D3A0004FF0000A4FF0010A1D68083535F8083CB7
:10D3B000002BD2D03B42F8D055F8043C30465146C1
:10D3C0004A469847F1E7054BC3F81C81074B1F708D
:10D3D000BDE8F087880C0020000008400060004095
:10D3E000840C00201C6000408C0C0020DC2A0020F3
:10D3F000FFF79CBFFFF79ABF034B186818B10138BD
:10D40000186000B962B67047C80B002013B572B639
:10D41000284B294C1A68511C1CBF01321A60237812
:10D4200023B102B0BDE81040FFF7E6BF012323702F
:10D43000FFF7E2FF214B22491A880B8892B2D31AD8
:10D440009BB20BB9237033E018B2002807DA0B88BF
:10D4500040F2DC52C3F5BB6304339BB208E0B0F585
:10D46000806F05DD0A884FF4806302F5806292B216
:10D4700008881449184480B208800C8840F2DB50B8
:10D48000A4B2844204D90888A0F2DC5080B208809B
:10D490000D4901200A440D491BB20A610C4A013BA7
:10D4A000106000220193009201461346FBF73EFCF8
:10D4B00002B010BDC80B0020900C0020701200209C
:10D4C000721200206E120020900C0020000100203B
:10D4D00034000843054A00231360054A1188054AB1
:10D4E00089B21180044A1370FFF790BF34000843DB
:10D4F0006E12002072120020900C0020F8B501215D
:10D5000005462048FBF7B8F81F4C20480121FBF7DF
:10D51000B3F801211E48FBF7AFF82046FCF78AF864
:10D520001C4920468D600227FCF752F804210A4668
:10D53000676503200123FBF759FF174B174A0025A6
:10D54000174EDA6001241D611648FBF7FFFD2046E7
:10D550001549C6F88040FBF7C1FC144A2046214615
:10D56000FBF7F2FC124A134B5A61134A41F20C03C7
:10D57000D750402386F80033104B34601D80104B89
:10D580001D80F8BD001304000040084000C20200E6
:10D590004005140028020020F4290020D5D4000002
:10D5A00000E100E0200200203802002044020020B8
:10D5B000284008400001002000200C40721200208A
:10D5C0007012002030B500210278002A2FD01A4BAB
:10D5D0001A4C1D8824882D1BADB2ACB214F4004F38
:10D5E0001CBF05F2DC54A4B224B240F2DA55AC42BE
:10D5F0001DDC134C2578134C45B10A2A06D129B9F4
:10D600001A880D2192B2A154012104E01988013039
:10D6100089B2625400211A88013292B21A8040F213
:10D62000DB539A42D0D9044B00221A80CCE7BDE8E4
:10D630003040FFF7EBBE00BF7012002072120020D6
:10D6400049020020910C002007B500238DF804004A
:10D6500001A88DF80530FFF7B5FF03B05DF804FBB6
:10D66000044B1A88044B92B21B889BB29A42F7D1A2
:10D67000704700BF701200207212002008B5044BE2
:10D6800000221A7001F032FBBDE8084000F04EBCE9
:10D690007812002013B50E480121FAF7EDFF04209F
:10D6A0000D2102220123FBF7A1FE0A4C00221346A2
:10D6B000009204200D21FBF757FE23785BB2013363
:10D6C00003D10548FEF716FE207002B010BD00BF62
:10D6D00000C202004A0200207DD60000F8B52A4BA5
:10D6E0000C4603F1887184F0010649011D6841F878
:10D6F00020601E465AB1254B254A0D2814BF322101
:10D7000031212448002C08BF1A4600F045F901F0E9
:10D71000B7FC044600F060FB1F4A117813461F4A0D
:10D7200001B114B1117819B910B11D4900270F705A
:10D730001C70336810705BB1194B1A78FAB9F4B9E0
:10D74000E8B101221A7001F0A5FA00F05BFC16E0C6
:10D75000ADB1144B1968144B00291A7852B206DD8A
:10D7600001320CD0187840B2FEF71AFE07E0013201
:10D7700003D0187840B2FEF737FEFFF77FFF0B4B60
:10D7800001221A70F8BD00BFAC2A0020526F0100C0
:10D79000686F0100396C0100791200207A120020B4
:10D7A00078120020741200204A020020DC2A002097
:10D7B000034B186818B10138186000B962B6704799
:10D7C000C80B0020054B1A780AB1002201E0044B77
:10D7D00001221A70034B01221A707047A81400200E
:10D7E00080120020DC2A0020F0B5474BABB01B783C
:10D7F00005460F4616461BB1444B01221A7007E03E
:10D80000434B93F90000441C02D00521FEF7C8FDEC
:10D8100008A807A9FEF774FF0D9A92B10B9B0DF1B2
:10D82000450000930A9B3B490193099B0293089B87
:10D830000393079B04930C9B013303F057FB441C99
:10D8400005E00DF14500344903F094FC152455B171
:10D850002B7843B111A82044294603F08BFC2846BD
:10D8600003F0E6FC044411A832463946204404F093
:10D870009DFF044411A82044284903F07BFCE21CCE
:10D8800072B6274B04341968481C1CBF013119605B
:10D89000244925480D680068C5F58053A342C8BFD8
:10D8A0000023EC18201A48BF00F58050C0F57F60B7
:10D8B0000F30904210DA1D4C236801332360FFF7CC
:10D8C00077FF0DF14500FFF77DFE0DF1450018498A
:10D8D000226803F00BFB11E0002B164802DD002349
:10D8E00043550B600B68941E8DF844409C180C60E7
:10D8F000184411A902F0C4FCFFF75AFF0DF14500CE
:10D90000FFF760FE2BB0F0BDA814002080120020AD
:10D910004B020020416C0100636C0100786C010037
:10D92000C80B0020B0140020B4140020AC14002058
:10D930007B6C0100B8140020094A0A4B116831B110
:10D94000002111601A78013AD2B21A7001E0012167
:10D9500011601B7813B13220FEF778BD704700BF0D
:10D9600094010C427B12002010B5074A002313607B
:10D97000064C074A136094F90030013303D105487F
:10D98000FEF7B8FC207010BDB01400204B02002040
:10D99000B4140020C5D700000FB407B504AA52F88C
:10D9A000041B00200192FFF71FFF03B05DF804EB9A
:10D9B00004B070470FB407B504AA52F8041B04481A
:10D9C0000192FFF711FF03B05DF804EB04B070475C
:10D9D000B06C010038B505460C4619B91B48B22198
:10D9E000FAF78CFC35B11A48294601F007FC0028EB
:10D9F00018BF044617490B7823B117482246FFF792
:10DA0000CBFF03E015482146FFF7C6FF144D214622
:10DA1000104803F0AFFB214628461322FDF7D6FC41
:10DA20002C46014628B9E9682846FDF78BFF0146D8
:10DA300028B10C48FFF7BEFF0023236002E00A4B29
:10DA400002221A60BDE8384001F00ABDB76C01003F
:10DA5000CC6C0100B02A0020CE6C0100E56C010006
:10DA600084120020F76C01007C1200202DE9F341A4
:10DA7000804601F005FB0446002840F087804548B9
:10DA800001F0A0FB002800F0818001F0C3FC2046DB
:10DA9000FCF716FC08B9012525E03F4A1368013B55
:10DAA000002B13604ADB3D4816E03D490133194421
:10DAB000384822460DF10603FDF7E2FD0546002831
:10DAC0002DD1BDF80630A34209DA334A1368013B71
:10DAD000002B136032DB3348FFF76CFF2EE03B680E
